S01700004763634170706C69636174696F6E312E737265635B
S11300000C945A000C9486000C9464000C946400C4
S11300100C9464000C9464000C9464000C946400CC
S11300200C9464000C9464000C9464000C946400BC
S11300300C9464000C9464000C9464000C946400AC
S11300400C9464000C9464000C9464000C9464009C
S11300500C9464000C9464000C9464000C9464008C
S11300600C9464000C9464000C9464000C9464007C
S11300700C9464000C9464000C9464000C9464006C
S11300800C9464000C9464000C9464000C9464005C
S11300900C9464000C9464000C9464000C9464004C
S11300A00C9464000C9464000C9464000C9464003C
S11300B00C94640011241FBECFEFD8E0DEBFCDBF87
S11300C00E9466000C949F000C94000084E08BB99D
S11300D082E08093690081E08DBB78948FEF84B9CE
S11300E015B82FEF8EE994E2215080409040E1F75B
S11300F000C0000088E085B92FEF84E39CE0215024
S113010080409040E1F700C00000EACF1F920F92B8
S11301100FB60F9211242F938F939F932FEF87EA9B
S113012091E6215080409040E1F700C000009F918B
S11301308F912F910F900FBE0F901F901895F894E8
S1050140FFCFEB
S9030000FC
