:020000020000FC
:0200000002C03C
:1000040030C0789400E018E02FEF31E045E056EC82
:10001400ADE2BDE3009380004093810024B9C4E0C5
:10002400CBB9C2E0C0936900C1E0C0933D0005B9FB
:100034000093850000938400609184007091840093
:100044008091850090918500651719F0711721F052
:10005400F3CF8A1721F0F0CF9B1749F3EDCF15B9F1
:10006400EBCF00938500009384006091840070912D
:100074008500613109F0F9CF7A3709F0F6CFC093E2
:040084003C0018958F
:00000001FF
