S01700004763634170706C69636174696F6E312E737265635B
S11300000C945A000C9464000C9464000C946400E6
S11300100C9464000C9464000C9464000C946400CC
S11300200C9464000C9464000C9464000C946400BC
S11300300C9464000C9464000C9464000C946400AC
S11300400C9464000C9464000C9464000C9464009C
S11300500C9464000C9464000C9464000C9464008C
S11300600C9464000C9464000C9464000C9464007C
S11300700C9464000C9464000C9464000C9464006C
S11300800C9464000C9464000C9464000C9464005C
S11300900C9464000C9464000C9464000C9464004C
S11300A00C9464000C9464000C9464000C9464003C
S11300B00C94640011241FBECFEFD8E0DEBFCDBF87
S11300C00E9466000C9481000C9400008FEF84B9A8
S11300D085B1887085B92FEF8EE994E22150804074
S11300E09040E1F700C0000085B1876F85B92FEF1C
S11300F084E39CE0215080409040E1F700C0000080
S1090100E7CFF894FFCFE5
S9030000FC
