:100000000C945A000C9464000C9464000C946400EA
:100010000C9464000C9464000C9464000C946400D0
:100020000C9464000C9464000C9464000C946400C0
:100030000C9464000C9464000C9464000C946400B0
:100040000C9464000C9464000C9464000C946400A0
:100050000C9464000C9464000C9464000C94640090
:100060000C9464000C9464000C9464000C94640080
:100070000C9464000C9464000C9464000C94640070
:100080000C9464000C9464000C9464000C94640060
:100090000C9464000C9464000C9464000C94640050
:1000A0000C9464000C9464000C9464000C94640040
:1000B0000C94640011241FBECFEFD8E0DEBFCDBF8B
:1000C0000E9466000C94B8000C9400008FEF84B975
:1000D00088B1846088B985B1886085B92FEF34E331
:1000E0004CE0215030404040E1F700C0000095B1A5
:1000F00088E0892785B98FEF9EE924E281509040FE
:100100002040E1F700C00000339BE5CF2BC025B1B4
:10011000246025B925B1286025B93FEF4EE924E2D6
:10012000315040402040E1F700C0000035B128E0E8
:10013000232725B93FEF44E32CE0315040402040D5
:10014000E1F700C0000025B1246025B93FEF4EE97A
:1001500024E2315040402040E1F700C0000015B8D3
:10016000019602C080E090E01816190684F6B3CF1D
:04017000F894FFCF31
:00000001FF
